:10C000005542200135D0085A82450A0231400004C9
:10C010003F4006000F93082492420A0220012F831A
:10C020009F4F9AC10002F8233F4004000F9307245A
:10C0300092420A0220011F83CF430602F923B01265
:10C0400068C132D0F000FD3F304098C11E42060268
:10C050000E9312241E93012430410F931C203F4065
:10C06000AC0D1E4204023E90891304281F420402B4
:10C070003F5078EC824F04021F4204023F90204E52
:10C0800005283F40204E824F040230411F420402E7
:10C090003F50E803F83F3F40E803E33F1F420202FE
:10C0A0001F930924F2F0FEFF2100F2D0400021008E
:10C0B000924302023041F2F0BFFF2100D2D32100AF
:10C0C000B240400002023041B0129CC082430802DC
:10C0D0001E4208021F4204020E9F082C92530802BF
:10C0E0001E4208021F4204020E9FF82BB0129CC091
:10C0F000824308021E4208021F4204020E9F082CBF
:10C10000925308021E4208021F4204020E9FF82B9F
:10C1100030410F120E125E4224001F437E92122401
:10C12000824F00021F4200021F9313241F4200028D
:10C130000F9301247F42C24F2400C24323003E419B
:10C140003F4100130F43824F00021F4200021F9322
:10C15000ED231E4206020E930320824F0602E63FA5
:10C160000F43824F0602E23FB240805A2001F2D0D4
:10C1700041002200F2422700F2422500C243230080
:10C18000C243240032D2B012C8C01F4200020F9333
:0AC19000FA23B0124CC0F73F001371
:06C19A00010001003075F8
:10FFE00048C048C012C148C048C048C048C048C006
:10FFF00048C048C048C048C048C048C048C000C009
:040000030000C00039
:00000001FF
